:100000000C9462000C948A000C948A000C948A0070
:100010000C948A000C948A000C948A000C948A0038
:100020000C948A000C948A000C948A000C948A0028
:100030000C948A000C948A000C948A000C948A0018
:100040000C94F6030C948A000C948A000C948A0099
:100050000C948A000C948A000C948A000C948A00F8
:100060000C9440040C948A00000000002400270037
:100070002A0000000000250028002B0000000000DE
:1000800023002600290004040404040404040202DA
:100090000202020203030303030301020408102007
:1000A0004080010204081020010204081020000012
:1000B0000008000201000003040700000000000027
:1000C00000000F0911241FBECFEFD8E0DEBFCDBF67
:1000D00011E0A0E0B1E0EAEEF6E102C005900D9279
:1000E000A431B107D9F721E0A4E1B1E001C01D922C
:1000F000A93FB207E1F710E0C2E6D0E004C02197C3
:10010000FE010E946D0BC136D107C9F70E945F0541
:100110000C94730B0C940000833081F028F4813030
:1001200099F08230A9F008958730A9F08830C9F09D
:100130008430B1F4809180008F7D03C08091800075
:100140008F7780938000089584B58F7784BD08955C
:1001500084B58F7DFBCF8091B0008F778093B00006
:1001600008958091B0008F7DF9CFCF93DF93E3EBBB
:10017000F0E08491EFE9F0E0D491EBE8F0E0C49195
:10018000CC23A1F081110E948C00EC2FF0E0EE0F47
:10019000FF1FE458FF4FA591B491EC91ED2381E04E
:1001A00090E009F480E0DF91CF91089580E090E045
:1001B000FACF1F93CF93DF93282F30E0F901E25558
:1001C000FF4F8491F901E656FF4FD491F901EA57A8
:1001D000FF4FC491CC23A9F0162F81110E948C00EF
:1001E000EC2FF0E0EE0FFF1FEE58FF4FA591B491FA
:1001F0008FB7F894EC91111108C0D095DE23DC93F1
:100200008FBFDF91CF911F910895DE2BF8CFCF9351
:10021000DF9390E0FC01E656FF4F24918A579F4FF1
:10022000FC0184918823D1F090E0880F991FFC0194
:10023000E859FF4FA591B491FC01EE58FF4FC591CD
:10024000D491623071F49FB7F8943C91822F8095DD
:1002500083238C93E8812E2B28839FBFDF91CF913E
:1002600008958FB7F894EC912E2B2C938FBFF6CF77
:100270003FB7F8948091F5019091F601A091F701B4
:10028000B091F80126B5A89B05C02F3F19F0019643
:10029000A11DB11D3FBFBA2FA92F982F8827BC01E0
:1002A000CD01620F711D811D911D42E0660F771F08
:1002B000881F991F4A95D1F708958F929F92AF9208
:1002C000BF92CF92DF92EF92FF924B015C010E94AE
:1002D00038016B017C010E9438016C197D098E097F
:1002E0009F09683E734081059105A8F321E0821AB9
:1002F0009108A108B10888EEC80E83E0D81EE11C61
:10030000F11C81149104A104B10429F7FF90EF902E
:10031000DF90CF90BF90AF909F908F900895E09125
:10032000AF01F091B001309729F01092AA0110921C
:10033000A90109940895CF93DF93AC01E091AD0139
:10034000F091AE013097F1F09091AC018091AB014A
:100350009817C0F090E0292F30E02617370754F4A3
:10036000D901AC5EBE4F240F351FE90128812C93C3
:100370009F5FF1CF1092AC016093AB01CB01DF9195
:10038000CF910994DF91CF91089520915A01260FC2
:100390003327331F21323105ECF420917E01FC011B
:1003A00090E080E0243069F082E00895A0915A0145
:1003B0002191AC01465C5E4FA40FB52FB11D2C936B
:1003C0000196861798F380915A01680F60935A013D
:1003D00080E0089581E0089510927E0181E080938D
:1003E000800110927F0161E082E10E94D90061E00A
:1003F00083E10E94D900E9EBF0E080818E7F808369
:1004000080818D7F808388E48093B80085E4809329
:10041000BC0008950895E091AC018091AB01E8170C
:1004200030F4F0E0EC5EFE4F808190E008958FEFB5
:100430009FEF08959091AC018091AB012FEF3FEFBA
:10044000981748F4E92FF0E0EC5EFE4F208130E091
:100450009F5F9093AC01C90108958091AB01909189
:10046000AC01891B990B0895CF93DF93CB01EA016F
:10047000642F0E94C501CE01DF91CF910895CF93E3
:10048000DF931F92CDB7DEB7698361E0CE0101969D
:100490000E94C50181E090E00F90DF91CF91089517
:1004A00090E080E0089560E082E00E94D90060E082
:1004B00083E00C94D900CF93DF9300D000D0CDB768
:1004C000DEB74091C3014423E1F0FE01319690E094
:1004D00080E0BF01841738F4DC01A154BE4F2C9199
:1004E00021930196F7CF50E081EB91E00E94340216
:1004F0001092C3010F900F900F900F90DF91CF914A
:10050000089560E081EB91E00E943F02F3CF18165E
:1005100019064CF581EB91E00E941A028093C50107
:100520001092BE01813011F0803F79F49091AB01BF
:100530008091AC019817A1F081EB91E00E941A0222
:100540008093BD0181E08093BE019091AB018091C9
:10055000AC01981729F081EB91E00E941A02F5CFC7
:1005600081E08093C60108951092EE011092ED0192
:100570000C9453029093EE018093ED01029741F0A9
:1005800061E082E00E94D90060E083E00C94D90031
:1005900060E082E00E94D90061E0F7CF8EBD0000EC
:1005A0000DB407FEFDCF8EB508951F93CF93DF9353
:1005B00081E58CBD1DBC60E08AE00E94D90080E32B
:1005C0000E94CE0283E00E94CE0280E00E94CE0212
:1005D000182F80E30E94CE0284E00E94CE0280E0C9
:1005E0000E94CE02C82F80E30E94CE0285E00E94C6
:1005F000CE0280E00E94CE02D82F61E08AE00E9405
:10060000D9006C2F70E090E080E0982F872F762F34
:100610006627812B6D2B33E09695879577956795A7
:100620003A95D1F70E94490A20E030E044EB53E4C8
:100630000E94000B20E030E040E055E30E94000BF8
:10064000DF91CF911F9108958F929F92AF92BF92A9
:10065000CF92DF92EF92FF920E94D5024B015C0194
:100660002091C7013091C8014091C9015091CA0140
:100670000E9436096B017C0120E030E044E353E442
:100680000E94FB0A1816BCF520E030E044EB53E46E
:10069000C701B6010E9436096B017C01A7019601D2
:1006A0006091DD017091DE018091DF019091E001A8
:1006B0000E9437096093DD017093DE018093DF01B2
:1006C0009093E0018092C7019092C801A092C90165
:1006D000B092CA018092CB019092CC01A092CD0140
:1006E000B092CE01FF90EF90DF90CF90BF90AF908F
:1006F0009F908F90089520E030E044E353ECC701D1
:10070000B6010E94A30987FFC9CF20E030E044EB87
:1007100053E4C701B6010E943709BECFCF93DF93E0
:1007200085ED8093BC008091360190913701A091B6
:100730003801B09139010796A11DB11D23E0B6958E
:10074000A795979587952A95D1F72091BC0024FD10
:1007500003C010927E0136C040913601509137019E
:100760006091380170913901452B462B472B69F375
:100770000097A105B10541F02AE22A95F1F700C0E2
:100780000197A109B109E1CF8091350191E09093E2
:1007900034018823B9F0C091B800D091BA0080919B
:1007A000BC008A7B8093BC0060E082E10E94D9009B
:1007B00060E083E10E94D9000E94EC01D093BA006E
:1007C000C093B800DF91CF910895CF93C82F90E0E8
:1007D00080E00E942009C81729F06C2F90E080E08B
:1007E0000E942809C0930001CF9108951F920F9293
:1007F0000FB60F9211242F933F938F939F93AF9334
:10080000BF938091F1019091F201A091F301B09119
:10081000F4013091F00123E0230F2D3758F50196B4
:10082000A11DB11D2093F0018093F1019093F2017D
:10083000A093F301B093F4018091F5019091F6013A
:10084000A091F701B091F8010196A11DB11D80930F
:10085000F5019093F601A093F701B093F801BF91D1
:10086000AF919F918F913F912F910F900FBE0F905D
:100870001F90189526E8230F0296A11DB11DD2CF17
:100880001F920F920FB60F9211242F933F934F9305
:100890005F936F937F938F939F93AF93BF93EF93E8
:1008A000FF938091B900887F803609F44AC0F0F543
:1008B000883209F4A7C018F5803109F49BC0B8F458
:1008C000882309F4F9C0883009F494C0FF91EF91AE
:1008D000BF91AF919F918F917F916F915F914F9158
:1008E0003F912F910F900FBE0F901F901895883158
:1008F00009F488C0803251F780937D0114C08034A0
:1009000009F49DC040F48033B9F38833F9F680933D
:100910007D0185ECB0C0803509F485C0883509F4C7
:1009200096C0883499F60E948E03D0CF883909F496
:100930008CC038F5883729F050F4883611F08037AC
:1009400029F683E080937E0110927C0157C088389D
:1009500009F47BC0803919F0803809F0B7CF809155
:100960007C01803208F071C0E0917C0181E08E0F43
:1009700080937C018091BB00F0E0E45AFE4F8083BD
:100980003DC0803B39F0E0F4803A09F479C0883A00
:1009900009F09CCF84E080937E0110925B0110925D
:1009A0005A01E091A701F091A801099580915A019F
:1009B00081110FC081E080935A0110923A0109C061
:1009C000803C09F4A6CF883C09F4A3CF883B09F00A
:1009D0007DCFE0915B0181E08E0F80935B01F0E0C1
:1009E000E65CFE4F80818093BB0090915B0180911B
:1009F0005A0129C08091A3018093BB0085EC8093AC
:100A0000BC0064CF9091A2018091A101981758F584
:100A1000E091A20181E08E0F8093A201F0E0EF57F8
:100A2000FE4F8081E9CFE091A20181E08E0F80939B
:100A3000A2018091BB00F0E0EF57FE4F80839091C0
:100A4000A2018091A1019817C8F285E8D8CFE09162
:100A5000A20181E08E0F8093A2018091BB00F0E0A3
:100A6000EF57FE4F80838091800181115CCF81E040
:100A700080937F0184EA8093BC0010927E0126CF90
:100A800085EC8093BC0010927E0180917C018032C5
:100A900030F4E0917C01F0E0E45AFE4F1082609166
:100AA0007C0170E0E091A501F091A6018CE591E058
:100AB000099510927C010ACF10927D0134CF789471
:100AC00084B5826084BD84B5816084BD85B5826053
:100AD00085BD85B5816085BD80916E008160809304
:100AE0006E0010928100809181008260809381006D
:100AF000809181008160809381008091800081607D
:100B0000809380008091B10084608093B1008091D7
:100B1000B00081608093B00080917A0084608093FF
:100B20007A0080917A00826080937A0080917A00C6
:100B3000816080937A0080917A00806880937A0047
:100B40001092C10068EC70E080E090E00E945D01CE
:100B500061E08AE00E94070161E08AE00E94D9001A
:100B6000CFB7F8948091A401811127C0E0E9F0E0AB
:100B70008491E4EAF0E09491E82FF0E0EE0FFF1F9B
:100B8000E859FF4FA591B491EC91E92321F461E07C
:100B90008AE00E94D90061E08AE00E9407018CB5DA
:100BA00080618CBD8CB580648CBD61E08DE00E945D
:100BB000070161E08BE00E9407018091A4018F5F33
:100BC0008093A401CFBF0E94D5026093CB017093A4
:100BD000CC018093CD019093CE018091CB01909177
:100BE000CC01A091CD01B091CE018093C70190932B
:100BF000C801A093C901B093CA011092DD011092FF
:100C0000DE011092DF011092E00161E082E00E94BB
:100C1000070161E083E00E9407010E94B40262E0E4
:100C200085E00E94070190E080E00E94200998EF93
:100C3000980F903708F056C080930001C0910001D2
:100C40001092AC011092AB011092AA011092A9016E
:100C50000E94EC018FE891E09093A8018093A70196
:100C60008BE991E09093A6018093A501CC0FC093EE
:100C7000BA0087E892E09093AE018093AD018BE5D6
:100C800092E09093B0018093AF011092EF0181E068
:100C900090E09093D8018093D70193E0292E312CD6
:100CA000812C912C24EBA22E23ECB22E03E0C1E088
:100CB0001FEF8091C601882351F11092C6018091E7
:100CC000C5018093C401833009F471C088F4813078
:100CD00009F4E6C0823009F4F8C0C093C301109350
:100CE000BF0115C080E6809300010E94E503A6CFF6
:100CF000853541F0803F09F4F5C0803171F7C0932C
:100D0000C30103C0C093C3018AEA8093BF018091ED
:100D1000EF018111FBC10E9424038091D7019091C2
:100D2000D8018230910509F495C108F0F8C0019707
:100D300009F45CC12FB7F8948091F1019091F20110
:100D4000A091F301B091F4012FBF4091E8015091BF
:100D5000E9016091EA017091EB01841B950BA60BF0
:100D6000B70B80319742A105B10598F02FB7F894E1
:100D70008091F1019091F201A091F301B091F40101
:100D80002FBF8093E8019093E901A093EA01B0930B
:100D9000EB0165E070E080E090E00E945D0180E0A2
:100DA00090E0892B09F485CF0E9400007FCF7090DE
:100DB000EF01772009F465C02091D9013091DA0163
:100DC0004091DB015091DC016091DD017091DE0109
:100DD0008091DF019091E0010E9436096B017C0156
:100DE00020E030E0A9010E94A30987FD46C020E071
:100DF00030E044E354E4C701B6010E94FB0A181630
:100E000034F4C12CD12C84E3E82E84E4F82E20E0C5
:100E100030E044E354E4C701B6010E94A80920E091
:100E200030E048EC52E40E94000B6B017C01D62FAD
:100E30004D2C582E6F2C20E030E0A9010E94A30910
:100E400060E087FD11C020E030E048EC52E4B601DC
:100E5000C7010E94FB0A64E6181634F06D2F742D4A
:100E6000852D962D0E941A0A8091EC0181110EC0E9
:100E700082E0772061F080E00AC0C12CD12C76019D
:100E8000C6CFD0E0412C512C612CE8CF81E00093FB
:100E9000C3016093BF018093C0011092C10137CF9D
:100EA0008091BE01882371F08091BD01853608F0E4
:100EB00084E690E09093E6018093E501C093E7011A
:100EC0001092EC011092C30122CF0E94B402109242
:100ED000EF011092EC0181E090E09093D8018093B3
:100EE000D701F0CF8091BE01882361F38091BD01CD
:100EF00098EF980F983730F70E94E50362E370E0AF
:100F000080E090E00E945D0188E198E00FB6F894DF
:100F1000A895809360000FBE90936000FFCF833050
:100F2000910509F4C7C0049709F004CFC090DD0112
:100F3000D090DE01E090DF01F090E0012091D3013C
:100F40003091D4014091D5015091D601C701B6012D
:100F50000E9436092B013C0120E030E040E050E4E3
:100F60006091CF017091D0018091D1019091D20117
:100F70000E9437099B01AC01C301B2010E94A30981
:100F800018160CF4D7CE0E94B402C092D901D092A8
:100F9000DA01E092DB01F092DC018091CB019091CB
:100FA000CC01A091CD01B091CE018093C701909367
:100FB000C801A093C901B093CA01C093EF01A5E095
:100FC000B0E0B093D801A093D7011092E60110923F
:100FD000E5011092E1011092E2011092E3011092FA
:100FE000E4011092E7011092EC01A4CE0E94B5003A
:100FF0004091DD015091DE016091DF017091E001CF
:10100000892BC9F482E090E09093D8018093D701B6
:101010004093D3015093D4016093D5017093D601CE
:101020008092CF019092D001A092D101B092D201D2
:101030000E94BA027FCE3092D8012092D70140930D
:10104000D3015093D4016093D5017093D60181E010
:1010500090E0EECFC090DD01D090DE01E090DF01A6
:10106000F090E0012091D3013091D4014091D5015D
:101070005091D601C701B6010E9436092091CF01D7
:101080003091D0014091D1015091D2010E94A30929
:1010900018160CF44FCE0E94B4023092D801209260
:1010A000D701C092D301D092D401E092D501F09241
:1010B000D601CDCF0E94B500892B09F03BCE0E940E
:1010C000B402A4E0B0E0B093D801A093D70180911E
:1010D000DD019091DE01A091DF01B091E0018093EC
:1010E000D3019093D401A093D501B093D60180E0B1
:1010F00090E0A4E3B4EC8093CF019093D001A0934F
:10110000D101B093D20182E090E092CF0E942403FB
:101110008091E701882311F16091E5017091E6016A
:10112000072E000C880B990B0E944B0A20E030E040
:1011300048EC52E40E94A80920E030E044E354E483
:101140000E94000B6093E1017093E2018093E30140
:101150009093E4011092E7011092EC018091EC0170
:10116000882311F10E94B4028091ED019091EE016B
:10117000892B09F4DFCD81E480937C0080917A0093
:10118000806480937A0080917A0086FDFCCF809104
:10119000780090917900843893400CF4CBCDC093C3
:1011A000EC010E94B402C6CD2091D9013091DA0140
:1011B0004091DB015091DC016091DD017091DE0115
:1011C0008091DF019091E0010E9436099B01AC0102
:1011D0006091E1017091E2018091E3019091E4015D
:1011E0000E9436096B017C019F7720E030E040E0EF
:1011F00050E40E94A30918160CF0B4CF20E030E0B0
:10120000A901C701B6010E94FB0A18162CF481E05F
:1012100090E00E94BA02A8CF82E090E0FACFE1EB22
:10122000F1E01382128288EE93E0A0E0B0E08483C4
:101230009583A683B78385E091E0918380830895A9
:10124000F999FECF92BD81BDF89A992780B508958E
:10125000262FF999FECF1FBA92BD81BD20BD0FB6D2
:10126000F894FA9AF99A0FBE019608955058BB2740
:10127000AA270E944E090C94C10A0E94B30A38F0B2
:101280000E94BA0A20F039F49F3F19F426F40C9416
:10129000B00A0EF4E095E7FB0C94AA0AE92F0E942D
:1012A000D20A58F3BA17620773078407950720F02C
:1012B00079F4A6F50C94F40A0EF4E0950B2EBA2FEF
:1012C000A02D0B01B90190010C01CA01A00111244C
:1012D000FF27591B99F0593F50F4503E68F11A16F8
:1012E000F040A22F232F342F4427585FF3CF469589
:1012F00037952795A795F0405395C9F77EF41F16AB
:10130000BA0B620B730B840BBAF09150A1F0FF0F74
:10131000BB1F661F771F881FC2F70EC0BA0F621F60
:10132000731F841F48F4879577956795B795F79550
:101330009E3F08F0B0CF9395880F08F09927EE0FE5
:101340009795879508950E94860A08F481E008958C
:101350000E94BC090C94C10A0E94BA0A58F00E946B
:10136000B30A40F029F45F3F29F00C94AA0A511106
:101370000C94F50A0C94B00A0E94D20A68F39923DF
:10138000B1F3552391F3951B550BBB27AA27621781
:101390007307840738F09F5F5F4F220F331F441F8E
:1013A000AA1FA9F335D00E2E3AF0E0E832D09150C2
:1013B0005040E695001CCAF72BD0FE2F29D0660FAF
:1013C000771F881FBB1F261737074807AB07B0E8F2
:1013D00009F0BB0B802DBF01FF2793585F4F3AF0F8
:1013E0009E3F510578F00C94AA0A0C94F50A5F3FD1
:1013F000E4F3983ED4F3869577956795B795F7957E
:101400009F5FC9F7880F911D9695879597F9089565
:10141000E1E0660F771F881FBB1F62177307840701
:10142000BA0720F0621B730B840BBA0BEE1F88F710
:10143000E09508950E94DA0A88F09F5798F0B92F36
:101440009927B751B0F0E1F0660F771F881F991FF9
:101450001AF0BA95C9F714C0B13091F00E94F40A9D
:10146000B1E008950C94F40A672F782F8827B85FAD
:1014700039F0B93FCCF3869577956795B395D9F751
:101480003EF490958095709561957F4F8F4F9F4F5B
:101490000895E89409C097FB3EF490958095709567
:1014A00061957F4F8F4F9F4F9923A9F0F92F96E9B0
:1014B000BB279395F695879577956795B795F11125
:1014C000F8CFFAF4BB0F11F460FF1BC06F5F7F4FC2
:1014D0008F4F9F4F16C0882311F096E911C07723D4
:1014E00021F09EE8872F762F05C0662371F096E8DD
:1014F000862F70E060E02AF09A95660F771F881FAC
:10150000DAF7880F9695879597F90895990F00084F
:10151000550FAA0BE0E8FEEF16161706E807F907C5
:10152000C0F012161306E407F50798F0621B730B60
:10153000840B950B39F40A2661F0232B242B252BE1
:1015400021F408950A2609F4A140A6958FEF811D84
:10155000811D089597F99F6780E870E060E0089525
:101560009FEF80EC089500240A94161617061806BB
:101570000906089500240A94121613061406050697
:101580000895092E0394000C11F4882352F0BB0F28
:1015900040F4BF2B11F460FF04C06F5F7F4F8F4F8B
:1015A0009F4F089557FD9058440F551F59F05F3FC6
:1015B00071F04795880F97FB991F61F09F3F79F075
:1015C00087950895121613061406551FF2CF4695F7
:1015D000F1DF08C0161617061806991FF1CF869579
:1015E0007105610508940895E894BB27662777275D
:1015F000CB0197F908950E94860A08F48FEF0895A9
:101600000E94130B0C94C10A0E94B30A38F00E9486
:10161000BA0A20F0952311F00C94AA0A0C94B00A8F
:1016200011240C94F50A0E94D20A70F3959FC1F31D
:10163000950F50E0551F629FF001729FBB27F00D80
:10164000B11D639FAA27F00DB11DAA1F649F6627D5
:10165000B00DA11D661F829F2227B00DA11D621F24
:10166000739FB00DA11D621F839FA00D611D221FDE
:10167000749F3327A00D611D231F849F600D211DC2
:10168000822F762F6A2F11249F5750409AF0F1F045
:1016900088234AF0EE0FFF1FBB1F661F771F881FAE
:1016A00091505040A9F79E3F510580F00C94AA0A32
:1016B0000C94F50A5F3FE4F3983ED4F38695779552
:1016C0006795B795F795E7959F5FC1F7FE2B880F54
:1016D000911D9695879597F90895EE0FFF1F059038
:0A16E000F491E02D0994F894FFCF77
:1016EA0060000000003F02340250020A022D021A72
:0416FA00020B0200DD
:00000001FF
